:100000000C9462000C948A000C948A000C948A0070
:100010000C948A000C948A000C948A000C948A0038
:100020000C948A000C948A000C948A000C948A0028
:100030000C948A000C948A000C948A000C948A0018
:100040000C9425050C948A000C948A000C948A0068
:100050000C948A000C948A000C948A000C948A00F8
:100060000C946F050C948A00000000002300260009
:10007000290000000008000201000003040700003E
:1000800000000000000000000000250028002B00F8
:1000900000000000240027002A00040404040404D3
:1000A0000404020202020202030303030303010227
:1000B00004081020408001020408102001020408F6
:1000C00010208E0611241FBECFEFD8E0DEBFCDBFBB
:1000D00011E0A0E0B1E0E6E5F1E102C005900D928B
:1000E000A03DB107D9F722E0A0EDB1E001C01D921B
:1000F000A33BB207E1F710E0C2E6D0E004C02197CD
:10010000FE010E94A308C136D107C9F70E94AE06BE
:100110000C94A9080C940000CF93DF9390E0FC01AD
:10012000E255FF4F249186569F4FFC01849188230E
:10013000C1F090E0880F991FFC01E057FF4FC59177
:10014000D491FC01EA57FF4FA591B4919FB7F89461
:100150008881E22FE0958E2388838C91E823EC93AD
:100160009FBFDF91CF910895833081F028F48130D3
:1001700099F08230A9F008958730A9F08830C9F04D
:100180008430B1F4809180008F7D03C08091800025
:100190008F7780938000089584B58F7784BD08950C
:1001A00084B58F7DFBCF8091B0008F778093B000B6
:1001B00008958091B0008F7DF9CFCF93DF93282FE2
:1001C00030E0F901EE58FF4F8491F901E255FF4FFD
:1001D000D491F901E656FF4FC491CC23A1F08111CF
:1001E0000E94B400EC2FF0E0EE0FFF1FE859FF4F24
:1001F000A591B491EC91ED2381E090E009F480E0C9
:10020000DF91CF91089580E090E0FACF1F93CF93D4
:10021000DF93282F30E0F901EE58FF4F8491F90168
:10022000E255FF4FD491F901E656FF4FC491CC231C
:10023000A9F0162F81110E94B400EC2FF0E0EE0F10
:10024000FF1FEA57FF4FA591B4918FB7F894EC9137
:10025000111108C0D095DE23DC938FBFDF91CF91C1
:100260001F910895DE2BF8CF3FB7F8948091970245
:1002700090919802A0919902B0919A0226B5A89BFC
:1002800005C02F3F19F00196A11DB11D3FBFBA2F28
:10029000A92F982F8827BC01CD01620F711D811DE8
:1002A000911D42E0660F771F881F991F4A95D1F76D
:1002B00008958F929F92AF92BF92CF92DF92EF926A
:1002C000FF924B015C010E9434016B017C010E9492
:1002D00034016C197D098E099F09683E73408105C0
:1002E0009105A8F321E0821A9108A108B10888EECF
:1002F000C80E83E0D81EE11CF11C81149104A104F6
:10030000B10429F7FF90EF90DF90CF90BF90AF90AE
:100310009F908F90089508950895AF92BF92CF92C5
:10032000DF92EF92FF920F931F93CF93DF936C01B5
:100330007B018B01040F151FEB015E01AE18BF0896
:10034000C017D10759F06991D601ED91FC91019048
:10035000F081E02DC6010995892B79F7C501DF9160
:10036000CF911F910F91FF90EF90DF90CF90BF90B2
:10037000AF90089520913C02260F3327331F21327E
:100380003105ECF420916002FC0190E080E0243023
:1003900069F082E00895A0913C022191AC01445E95
:1003A0005D4FA40FB52FB11D2C930196861798F3BE
:1003B00080913C02680F60933C0280E0089581E0E8
:1003C00008951092600281E08093620210926102AF
:1003D00061E082E10E94060161E083E10E94060182
:1003E000E9EBF0E080818E7F808380818D7F808348
:1003F00088E48093B80085E48093BC000895CF938F
:10040000DF9391E090931B028823B9F0C091B8006C
:10041000D091BA008091BC008A7B8093BC0060E0E0
:1004200082E10E94060160E083E10E9406010E94D1
:10043000E101D093BA00C093B800DF91CF91089545
:100440000895E0918D0280918C02E81730F4F0E07D
:10045000EA50FE4F808190E008958FEF9FEF08955E
:1004600090918D0280918C022FEF3FEF981748F406
:10047000E92FF0E0EA50FE4F208130E09F5F90933B
:100480008D02C901089580918C0290918D02891B83
:10049000990B0895CF92DF92EF92FF920F931F93E3
:1004A000CF93DF937C01CB018A012091F5012223B8
:1004B00089F0EB016B01C40ED51ECC15DD0569F08A
:1004C0006991D701ED91FC910190F081E02DC70178
:1004D0000995F3CF642F0E94BA01C801DF91CF9133
:1004E0001F910F91FF90EF90DF90CF900895CF93E1
:1004F000DF931F92CDB7DEB769832091F5012223E8
:10050000F9F020918A02203258F021E030E0FC011D
:100510003383228390E080E00F90DF91CF910895A4
:1005200080918B02E82FF0E0EB52FE4F998190838F
:100530008F5F80938B0280938A0281E090E0ECCF02
:1005400061E0CE0101960E94BA01F7CFCF92DF920F
:10055000EF92FF920F931F93CF93DF93FC01C4811F
:1005600021E02093F501C093D40110928B021092E8
:100570008A028385682B8BE992E00E947702D091F2
:100580008A02D13208F092C00E9434016B017C01D2
:1005900080916002811165C082E08093600281E0F9
:1005A000809362028FEF80935F0210928402D09357
:1005B0008302A5EDB1E0E3E6F2E080E0D81385C068
:1005C0001092850280918502CC0FC82BC0938502C2
:1005D00080916102813009F07CC0109261020E941A
:1005E00034016B017C01809185028093BB00809176
:1005F000170290911802A0911902B0911A02892B4A
:100600008A2B8B2B99F00E943401009117021091D4
:1006100018022091190230911A026C197D098E0975
:100620009F090617170728073907E0F18091BC00DA
:1006300083FDD9CF85EC8093BC000E9434016B010F
:100640007C0180916002823009F445C080915F0294
:100650008F3F61F180915F02803241F180915F02B2
:1006600025C08091170290911802A0911902B091B3
:100670001A02892B8A2B8B2B09F48ACF0E94340112
:1006800000911702109118022091190230911A025C
:100690006C197D098E099F09061717072807390766
:1006A00008F076CF809116020E94FF0110928B0213
:1006B00010928A021092F501DF91CF911F910F9154
:1006C000FF90EF90DF90CF9008959D9191938F5F71
:1006D00075CF85EEB0CF8091170290911802A0914E
:1006E0001902B0911A02892B8A2B8B2B09F4A9CFFE
:1006F0000E943401009117021091180220911902F2
:1007000030911A026C197D098E099F090617170787
:100710002807390708F095CFC5CF089590E080E00D
:10072000089588E00E94DD009093D3018093D20168
:1007300087E00E94DD0090938F0280938E0286E016
:100740000E94DD009093D1018093D00108958F9293
:100750009F92AF92BF920F931F93CF93DF93CDB72A
:10076000DEB7A1970FB6F894DEBF0FBECDBF19A2BA
:10077000423008F44AE08E010F5D1F4F842E912C09
:10078000B12CA12CA50194010E948108E62FB9018A
:10079000CA01EA3044F5E05DD801EE938D01232BC8
:1007A000242B252B79F790E080E0109769F0FD016C
:1007B00001900020E9F73197AF014A1B5B0BBD01A7
:1007C00087EA92E00E948D01A1960FB6F894DEBFF1
:1007D0000FBECDBFDF91CF911F910F91BF90AF9012
:1007E0009F908F900895E95CD7CF009769F0FC0146
:1007F00001900020E9F73197AF01481B590BBC016C
:1008000087EA92E00C948D0190E080E008950F93C8
:100810001F93CF938C01C62F0E94A6026C2F646099
:10082000C8010E94A6026C2F6B7FC8010E94A6021D
:1008300083EC90E00197F1F7CF911F910F9108950C
:100840000F931F93CF93DF938C01D62FC42F607F1C
:10085000642B0E94070480E1D89FB00111246C2B07
:10086000C801DF91CF911F910F910C940704CF9392
:10087000DF93CDB7DEB728970FB6F894DEBF0FBE73
:10088000CDBF98E0E0E0F1E0DE01119601900D921D
:100890009A95E1F79091AF02961708F46FEF262F23
:1008A00030E0220F331F41E050E04C0F5D1F240F5A
:1008B000351FF9016081680F606840E087EA92E0C7
:1008C00028960FB6F894DEBF0FBECDBFDF91CF9153
:1008D0000C94200440E061E087EA92E00E9420044A
:1008E0008BE39FE10197F1F7089541E00E94200416
:1008F00081E090E00895CF92DF92EF92FF926C0139
:10090000990FEE08FF08F7FE16C041E06DE287EA96
:1009100092E00E94200466277727CB016C197D099D
:100920008E099F094AE00E94A7030196FF90EF906D
:10093000DF90CF9008954AE0C701B601FF90EF9095
:10094000DF90CF900C94A703CF93DF938091D201D7
:100950009091D301019711F560E080E00E94370487
:100960000E946A048EE291E00E94F50368EE73E053
:1009700080E090E00E945901C0919002D0919102D4
:100980002197D0939102C093900261E082E00E948F
:100990003704CE01DF91CF910C947B048091D0017C
:1009A0009091D1010197B1F460E080E00E9437049A
:1009B0000E946A048EE391E00E94F50368EE73E002
:1009C00080E090E00E945901C0919002D091910284
:1009D0002196D7CFDF91CF91089585ED8093BC000C
:1009E0008091170290911802A0911902B0911A02F9
:1009F0000796A11DB11D23E0B695A79597958795FC
:100A00002A95D1F72091BC0024FD03C0109260020A
:100A10000895409117025091180260911902709147
:100A20001A02452B462B472B69F30097A105B10508
:100A300041F02AE22A95F1F700C00197A109B10916
:100A4000E1CF809116020C94FF011F920F920FB616
:100A50000F9211242F933F938F939F93AF93BF9344
:100A60008091930290919402A0919502B091960288
:100A70003091920223E0230F2D3758F50196A11DE6
:100A8000B11D209392028093930290939402A093BD
:100A90009502B09396028091970290919802A0914E
:100AA0009902B0919A020196A11DB11D80939702FF
:100AB00090939802A0939902B0939A02BF91AF913C
:100AC0009F918F913F912F910F900FBE0F901F908C
:100AD000189526E8230F0296A11DB11DD2CF1F92B3
:100AE0000F920FB60F9211242F933F934F935F9362
:100AF0006F937F938F939F93AF93BF93EF93FF93E6
:100B00008091B900887F803609F44AC0F0F58832B8
:100B100009F4A7C018F5803109F49BC0B8F4882304
:100B200009F4F9C0883009F494C0FF91EF91BF91A6
:100B3000AF919F918F917F916F915F914F913F9175
:100B40002F910F900FBE0F901F901895883109F4C8
:100B500088C0803251F780935F0214C0803409F45A
:100B60009DC040F48033B9F38833F9F680935F0277
:100B700085ECB0C0803509F485C0883509F496C08D
:100B8000883499F60E94ED04D0CF883909F48CC0DE
:100B900038F5883729F050F4883611F0803729F677
:100BA00083E08093600210925E0257C0883809F497
:100BB0007BC0803919F0803809F0B7CF80915E0290
:100BC000803208F071C0E0915E0281E08E0F809368
:100BD0005E028091BB00F0E0E25CFD4F80833DC08F
:100BE000803B39F0E0F4803A09F479C0883A09F0A2
:100BF0009CCF84E08093600210923D0210923C02F0
:100C0000E0918802F0918902099580913C0281115E
:100C10000FC081E080933C0210921C0209C0803C0E
:100C200009F4A6CF883C09F4A3CF883B09F07DCF17
:100C3000E0913D0281E08E0F80933D02F0E0E45EA2
:100C4000FD4F80818093BB0090913D0280913C02DA
:100C500029C0809185028093BB0085EC8093BC0005
:100C600064CF9091840280918302981758F5E091A7
:100C7000840281E08E0F80938402F0E0ED59FD4FF5
:100C80008081E9CFE091840281E08E0F809384021D
:100C90008091BB00F0E0ED59FD4F8083909184027C
:100CA000809183029817C8F285E8D8CFE09184023A
:100CB00081E08E0F809384028091BB00F0E0ED59BB
:100CC000FD4F80838091620281115CCF81E080932F
:100CD000610284EA8093BC001092600226CF85EC0A
:100CE0008093BC001092600280915E02803230F4EA
:100CF000E0915E02F0E0E25CFD4F108260915E02E6
:100D000070E0E0918602F09187028EE392E009950F
:100D100010925E020ACF10925F0234CFEBE9F2E04C
:100D20001382128288EE93E0A0E0B0E08483958382
:100D3000A683B78384E191E091838083E7EAF2E0C0
:100D40001382128286E291E09183808387E284831A
:100D500080E1818782E0828713860895789484B544
:100D6000826084BD84B5816084BD85B5826085BDA7
:100D700085B5816085BD80916E00816080936E0035
:100D80001092810080918100826080938100809127
:100D900081008160809381008091800081608093D8
:100DA00080008091B10084608093B1008091B00098
:100DB00081608093B00080917A00846080937A0093
:100DC00080917A00826080937A0080917A008160BD
:100DD00080937A0080917A00806880937A001092E4
:100DE000C10088E00E948C0087E00E948C0086E0B1
:100DF0000E948C0010928D0210928C0210928B0235
:100E000010928A020E94E1018BE891E0909389029E
:100E1000809388028CE891E0909387028093860209
:100E20001092AC028091B102823018F098E0909359
:100E3000AC028093AF0262E370E080E090E00E9439
:100E400059016091B20287EA92E00E94A60268EE20
:100E500073E080E090E00E94590160E387EA92E04D
:100E60000E940704CBE4D6E4CE010197F1F760E3DA
:100E700087EA92E00E9407042197F1F760E387EA8E
:100E800092E00E94070483E592E00197F1F760E2A7
:100E900087EA92E00E9407046091AC02606240E041
:100EA00087EA92E00E94200484E08093AD0240E053
:100EB0006CE087EA92E00E9420040E946A0482E0CB
:100EC0008093AE0240E066E087EA92E00E94200450
:100ED00040E062E087EA92E00E9420048BE39FE119
:100EE0000197F1F70E946A0488E08093B20260E003
:100EF00087EA92E00E94A602C0E0D0E003E010E0A2
:100F00000E9491030E94A40480919002909191020A
:100F100097FF3BC010929102109290020E949103A1
:100F200080918E0290918F02019709F045C08091C7
:100F3000900290919102009709F07DC060E080E0FE
:100F40000E9437040E946A048EE491E00E94F50337
:100F500068EE73E080E090E00E9459010E949103E6
:100F60000E94A4040E946A0460E080E00E943704AA
:100F70008FE591E00E94F50380918E0290918F029F
:100F8000892B51F40E949103F7CF04973CF2109300
:100F9000910200939002C2CF0E946A0460E080E058
:100FA0000E9437048AE691E00E94F50368EE73E040
:100FB00080E090E00E94590160E080E00E943704E8
:100FC0000E946A04E0919002F0919102EE0FFF1FDF
:100FD000E85FFE4F808191810E94F50361E082E02D
:100FE0000E943704C0909002D09091020D2C000C0A
:100FF000EE08FF084AE0C701B601F7FE0EC041E067
:101000006DE287EA92E00E94200466277727CB01F1
:101010006C197D098E099F094AE00E94A70368EEBA
:1010200073E080E090E00E945901209709F468CFB6
:101030000E94000065CF8130910581F560E080E07D
:101040000E9437040E946A048EE491E00E94F50336
:1010500068EE73E080E090E00E9459010E949103E5
:101060000E94A4040E946A0460E080E00E943704A9
:1010700088E791E00E94F50380918E0290918F02A3
:10108000892B19F40E949103F7CF0E946A0460E053
:1010900080E00E94370482E891E086CF029709F051
:1010A0008BCF60E080E00E9437040E946A048EE4E7
:1010B00091E00E94F50368EE73E080E090E00E940A
:1010C00059010E9491030E94A4040E946A0460E0F6
:1010D00080E00E9437048FE891E00E94F503809140
:1010E0008E0290918F02892B19F40E949103F7CF01
:1010F0000E946A0460E080E00E9437048EE991E07B
:1011000053CFA1E21A2EAA1BBB1BFD010DC0AA1FC3
:10111000BB1FEE1FFF1FA217B307E407F50720F060
:10112000A21BB30BE40BF50B661F771F881F991FDB
:101130001A9469F760957095809590959B01AC0124
:10114000BD01CF010895EE0FFF1F0590F491E02D32
:061150000994F894FFCFA2
:101156000000400014005400AC01B201BD01C701FB
:101166000000000077024A028E032002430230028A
:1011760021020000000075048D018E038D03627547
:1011860074746F6D31207072657373656400627577
:1011960074746F6D332070726573736564006D656A
:1011A6006E755F73656C6563696F6E61646F00630E
:1011B6006C6F636B206D656E750065786974696E1A
:1011C6006720636C6F636B0066726571206D656E78
:1011D600750065786974696E672066726571006965
:1011E6006E66726120726564206D656E7500657845
:1011F6006974696E6720696E66726100434C4F437D
:101206004B00524144494F204652455100494E46F3
:10121600524120524544006E6F7468696E67000043
:00000001FF
